{
  "contractName": "InvoiceContract",
  "abi": [
    {
      "inputs": [
        {
          "internalType": "uint256",
          "name": "",
          "type": "uint256"
        }
      ],
      "name": "invoices",
      "outputs": [
        {
          "internalType": "uint256",
          "name": "invoiceId",
          "type": "uint256"
        },
        {
          "internalType": "string",
          "name": "name",
          "type": "string"
        },
        {
          "internalType": "uint256",
          "name": "amount",
          "type": "uint256"
        },
        {
          "internalType": "uint256",
          "name": "dueDate",
          "type": "uint256"
        },
        {
          "internalType": "string",
          "name": "comments",
          "type": "string"
        },
        {
          "internalType": "string",
          "name": "status",
          "type": "string"
        },
        {
          "internalType": "address",
          "name": "payment_to",
          "type": "address"
        },
        {
          "internalType": "string",
          "name": "payment_from",
          "type": "string"
        }
      ],
      "stateMutability": "view",
      "type": "function",
      "constant": true
    },
    {
      "inputs": [],
      "name": "nextinvoiceId",
      "outputs": [
        {
          "internalType": "uint256",
          "name": "",
          "type": "uint256"
        }
      ],
      "stateMutability": "view",
      "type": "function",
      "constant": true
    },
    {
      "inputs": [
        {
          "internalType": "string",
          "name": "name",
          "type": "string"
        },
        {
          "internalType": "uint256",
          "name": "amt",
          "type": "uint256"
        },
        {
          "internalType": "uint256",
          "name": "_dueDate",
          "type": "uint256"
        },
        {
          "internalType": "string",
          "name": "_comments",
          "type": "string"
        }
      ],
      "name": "createInvoice",
      "outputs": [
        {
          "internalType": "uint256",
          "name": "",
          "type": "uint256"
        }
      ],
      "stateMutability": "nonpayable",
      "type": "function"
    },
    {
      "inputs": [
        {
          "internalType": "uint256",
          "name": "reqInvoiceId",
          "type": "uint256"
        }
      ],
      "name": "getInvoice",
      "outputs": [
        {
          "internalType": "string",
          "name": "name",
          "type": "string"
        },
        {
          "internalType": "uint256",
          "name": "amt",
          "type": "uint256"
        },
        {
          "internalType": "uint256",
          "name": "dueDate",
          "type": "uint256"
        },
        {
          "internalType": "string",
          "name": "comments",
          "type": "string"
        },
        {
          "internalType": "string",
          "name": "status",
          "type": "string"
        }
      ],
      "stateMutability": "view",
      "type": "function",
      "constant": true
    },
    {
      "inputs": [],
      "name": "getNextUnpaidInvoice",
      "outputs": [
        {
          "internalType": "uint256",
          "name": "invoiceId",
          "type": "uint256"
        },
        {
          "internalType": "string",
          "name": "name",
          "type": "string"
        },
        {
          "internalType": "uint256",
          "name": "amt",
          "type": "uint256"
        },
        {
          "internalType": "uint256",
          "name": "dueDate",
          "type": "uint256"
        },
        {
          "internalType": "string",
          "name": "comments",
          "type": "string"
        },
        {
          "internalType": "string",
          "name": "status",
          "type": "string"
        },
        {
          "internalType": "address",
          "name": "paymentTo",
          "type": "address"
        },
        {
          "internalType": "string",
          "name": "paymentFrom",
          "type": "string"
        }
      ],
      "stateMutability": "view",
      "type": "function",
      "constant": true
    },
    {
      "inputs": [
        {
          "internalType": "uint256",
          "name": "reqInvoiceId",
          "type": "uint256"
        },
        {
          "internalType": "string",
          "name": "_status",
          "type": "string"
        }
      ],
      "name": "updateInvoice",
      "outputs": [],
      "stateMutability": "nonpayable",
      "type": "function"
    },
    {
      "inputs": [
        {
          "internalType": "string",
          "name": "s1",
          "type": "string"
        },
        {
          "internalType": "string",
          "name": "s2",
          "type": "string"
        }
      ],
      "name": "compareStringsbyBytes",
      "outputs": [
        {
          "internalType": "bool",
          "name": "",
          "type": "bool"
        }
      ],
      "stateMutability": "pure",
      "type": "function",
      "constant": true
    }
  ],
  "bytecode": "0x60806040526001805534801561001457600080fd5b506117b4806100246000396000f3fe608060405234801561001057600080fd5b506004361061007d5760003560e01c8063a27479211161005b578063a274792114610112578063a6b948b214610130578063c29df00a1461014c578063e9a734ff1461017c5761007d565b80632cdabc25146100825780633a23cc0a146100a75780634e6d1405146100db575b600080fd5b61008a6101ac565b60405161009e989796959493929190611089565b60405180910390f35b6100c160048036038101906100bc9190611163565b61055d565b6040516100d2959493929190611190565b60405180910390f35b6100f560048036038101906100f09190611163565b6107e5565b604051610109989796959493929190611089565b60405180910390f35b61011a610a7d565b60405161012791906111f8565b60405180910390f35b61014a60048036038101906101459190611348565b610a83565b005b610166600480360381019061016191906113a4565b610acf565b60405161017391906111f8565b60405180910390f35b61019660048036038101906101919190611443565b610c8d565b6040516101a391906114d6565b60405180910390f35b600060606000806060806000606060006101c4610ce6565b9050600081815481106101da576101d96114f1565b5b90600052602060002090600802016000015460008281548110610200576101ff6114f1565b5b906000526020600020906008020160010160008381548110610225576102246114f1565b5b9060005260206000209060080201600201546000848154811061024b5761024a6114f1565b5b90600052602060002090600802016003015460008581548110610271576102706114f1565b5b906000526020600020906008020160040160008681548110610296576102956114f1565b5b9060005260206000209060080201600501600087815481106102bb576102ba6114f1565b5b906000526020600020906008020160060160009054906101000a900473ffffffffffffffffffffffffffffffffffffffff1660008881548110610301576103006114f1565b5b906000526020600020906008020160070186805461031e9061154f565b80601f016020809104026020016040519081016040528092919081815260200182805461034a9061154f565b80156103975780601f1061036c57610100808354040283529160200191610397565b820191906000526020600020905b81548152906001019060200180831161037a57829003601f168201915b505050505096508380546103aa9061154f565b80601f01602080910402602001604051908101604052809291908181526020018280546103d69061154f565b80156104235780601f106103f857610100808354040283529160200191610423565b820191906000526020600020905b81548152906001019060200180831161040657829003601f168201915b505050505093508280546104369061154f565b80601f01602080910402602001604051908101604052809291908181526020018280546104629061154f565b80156104af5780601f10610484576101008083540402835291602001916104af565b820191906000526020600020905b81548152906001019060200180831161049257829003601f168201915b505050505092508080546104c29061154f565b80601f01602080910402602001604051908101604052809291908181526020018280546104ee9061154f565b801561053b5780601f106105105761010080835404028352916020019161053b565b820191906000526020600020905b81548152906001019060200180831161051e57829003601f168201915b5050505050905098509850985098509850985098509850509091929394959697565b6060600080606080600061057087610e54565b905060008181548110610586576105856114f1565b5b9060005260206000209060080201600101600082815481106105ab576105aa6114f1565b5b906000526020600020906008020160020154600083815481106105d1576105d06114f1565b5b906000526020600020906008020160030154600084815481106105f7576105f66114f1565b5b90600052602060002090600802016004016000858154811061061c5761061b6114f1565b5b90600052602060002090600802016005018480546106399061154f565b80601f01602080910402602001604051908101604052809291908181526020018280546106659061154f565b80156106b25780601f10610687576101008083540402835291602001916106b2565b820191906000526020600020905b81548152906001019060200180831161069557829003601f168201915b505050505094508180546106c59061154f565b80601f01602080910402602001604051908101604052809291908181526020018280546106f19061154f565b801561073e5780601f106107135761010080835404028352916020019161073e565b820191906000526020600020905b81548152906001019060200180831161072157829003601f168201915b505050505091508080546107519061154f565b80601f016020809104026020016040519081016040528092919081815260200182805461077d9061154f565b80156107ca5780601f1061079f576101008083540402835291602001916107ca565b820191906000526020600020905b8154815290600101906020018083116107ad57829003601f168201915b50505050509050955095509550955095505091939590929450565b600081815481106107f557600080fd5b906000526020600020906008020160009150905080600001549080600101805461081e9061154f565b80601f016020809104026020016040519081016040528092919081815260200182805461084a9061154f565b80156108975780601f1061086c57610100808354040283529160200191610897565b820191906000526020600020905b81548152906001019060200180831161087a57829003601f168201915b5050505050908060020154908060030154908060040180546108b89061154f565b80601f01602080910402602001604051908101604052809291908181526020018280546108e49061154f565b80156109315780601f1061090657610100808354040283529160200191610931565b820191906000526020600020905b81548152906001019060200180831161091457829003601f168201915b5050505050908060050180546109469061154f565b80601f01602080910402602001604051908101604052809291908181526020018280546109729061154f565b80156109bf5780601f10610994576101008083540402835291602001916109bf565b820191906000526020600020905b8154815290600101906020018083116109a257829003601f168201915b5050505050908060060160009054906101000a900473ffffffffffffffffffffffffffffffffffffffff16908060070180546109fa9061154f565b80601f0160208091040260200160405190810160405280929190818152602001828054610a269061154f565b8015610a735780601f10610a4857610100808354040283529160200191610a73565b820191906000526020600020905b815481529060010190602001808311610a5657829003601f168201915b5050505050905088565b60015481565b6000610a8e83610e54565b90508160008281548110610aa557610aa46114f1565b5b90600052602060002090600802016005019080519060200190610ac9929190610ef3565b50505050565b60008060405180610100016040528060015481526020018781526020018681526020018581526020018481526020016040518060400160405280600781526020017f50656e64696e670000000000000000000000000000000000000000000000000081525081526020013373ffffffffffffffffffffffffffffffffffffffff168152602001878152509080600181540180825580915050600190039060005260206000209060080201600090919091909150600082015181600001556020820151816001019080519060200190610ba8929190610ef3565b5060408201518160020155606082015181600301556080820151816004019080519060200190610bd9929190610ef3565b5060a0820151816005019080519060200190610bf6929190610ef3565b5060c08201518160060160006101000a81548173ffffffffffffffffffffffffffffffffffffffff021916908373ffffffffffffffffffffffffffffffffffffffff16021790555060e0820151816007019080519060200190610c5a929190610ef3565b50505060016000815480929190610c70906115b0565b919050555060018054610c8391906115f9565b9050949350505050565b600081604051602001610ca09190611669565b6040516020818303038152906040528051906020012083604051602001610cc79190611669565b6040516020818303038152906040528051906020012014905092915050565b600080600090505b600080549050811015610e15576000808281548110610d1057610d0f6114f1565b5b90600052602060002090600802016005018054610d2c9061154f565b80601f0160208091040260200160405190810160405280929190818152602001828054610d589061154f565b8015610da55780601f10610d7a57610100808354040283529160200191610da5565b820191906000526020600020905b815481529060010190602001808311610d8857829003601f168201915b5050505050905060006040518060400160405280600781526020017f50656e64696e67000000000000000000000000000000000000000000000000008152509050610df08282610c8d565b15610e0057829350505050610e51565b50508080610e0d906115b0565b915050610cee565b506040517f08c379a0000000000000000000000000000000000000000000000000000000008152600401610e48906116f2565b60405180910390fd5b90565b600080600090505b600080549050811015610eb2578260008281548110610e7e57610e7d6114f1565b5b9060005260206000209060080201600001541415610e9f5780915050610eee565b8080610eaa906115b0565b915050610e5c565b506040517f08c379a0000000000000000000000000000000000000000000000000000000008152600401610ee59061175e565b60405180910390fd5b919050565b828054610eff9061154f565b90600052602060002090601f016020900481019282610f215760008555610f68565b82601f10610f3a57805160ff1916838001178555610f68565b82800160010185558215610f68579182015b82811115610f67578251825591602001919060010190610f4c565b5b509050610f759190610f79565b5090565b5b80821115610f92576000816000905550600101610f7a565b5090565b6000819050919050565b610fa981610f96565b82525050565b600081519050919050565b600082825260208201905092915050565b60005b83811015610fe9578082015181840152602081019050610fce565b83811115610ff8576000848401525b50505050565b6000601f19601f8301169050919050565b600061101a82610faf565b6110248185610fba565b9350611034818560208601610fcb565b61103d81610ffe565b840191505092915050565b600073ffffffffffffffffffffffffffffffffffffffff82169050919050565b600061107382611048565b9050919050565b61108381611068565b82525050565b60006101008201905061109f600083018b610fa0565b81810360208301526110b1818a61100f565b90506110c06040830189610fa0565b6110cd6060830188610fa0565b81810360808301526110df818761100f565b905081810360a08301526110f3818661100f565b905061110260c083018561107a565b81810360e0830152611114818461100f565b90509998505050505050505050565b6000604051905090565b600080fd5b600080fd5b61114081610f96565b811461114b57600080fd5b50565b60008135905061115d81611137565b92915050565b6000602082840312156111795761117861112d565b5b60006111878482850161114e565b91505092915050565b600060a08201905081810360008301526111aa818861100f565b90506111b96020830187610fa0565b6111c66040830186610fa0565b81810360608301526111d8818561100f565b905081810360808301526111ec818461100f565b90509695505050505050565b600060208201905061120d6000830184610fa0565b92915050565b600080fd5b600080fd5b7f4e487b7100000000000000000000000000000000000000000000000000000000600052604160045260246000fd5b61125582610ffe565b810181811067ffffffffffffffff821117156112745761127361121d565b5b80604052505050565b6000611287611123565b9050611293828261124c565b919050565b600067ffffffffffffffff8211156112b3576112b261121d565b5b6112bc82610ffe565b9050602081019050919050565b82818337600083830152505050565b60006112eb6112e684611298565b61127d565b90508281526020810184848401111561130757611306611218565b5b6113128482856112c9565b509392505050565b600082601f83011261132f5761132e611213565b5b813561133f8482602086016112d8565b91505092915050565b6000806040838503121561135f5761135e61112d565b5b600061136d8582860161114e565b925050602083013567ffffffffffffffff81111561138e5761138d611132565b5b61139a8582860161131a565b9150509250929050565b600080600080608085870312156113be576113bd61112d565b5b600085013567ffffffffffffffff8111156113dc576113db611132565b5b6113e88782880161131a565b94505060206113f98782880161114e565b935050604061140a8782880161114e565b925050606085013567ffffffffffffffff81111561142b5761142a611132565b5b6114378782880161131a565b91505092959194509250565b6000806040838503121561145a5761145961112d565b5b600083013567ffffffffffffffff81111561147857611477611132565b5b6114848582860161131a565b925050602083013567ffffffffffffffff8111156114a5576114a4611132565b5b6114b18582860161131a565b9150509250929050565b60008115159050919050565b6114d0816114bb565b82525050565b60006020820190506114eb60008301846114c7565b92915050565b7f4e487b7100000000000000000000000000000000000000000000000000000000600052603260045260246000fd5b7f4e487b7100000000000000000000000000000000000000000000000000000000600052602260045260246000fd5b6000600282049050600182168061156757607f821691505b6020821081141561157b5761157a611520565b5b50919050565b7f4e487b7100000000000000000000000000000000000000000000000000000000600052601160045260246000fd5b60006115bb82610f96565b91507fffffffffffffffffffffffffffffffffffffffffffffffffffffffffffffffff8214156115ee576115ed611581565b5b600182019050919050565b600061160482610f96565b915061160f83610f96565b92508282101561162257611621611581565b5b828203905092915050565b600081905092915050565b600061164382610faf565b61164d818561162d565b935061165d818560208601610fcb565b80840191505092915050565b60006116758284611638565b915081905092915050565b7f4e6f20756e7061696420496e766f69636520646f6573206e6f7420657869737460008201527f2100000000000000000000000000000000000000000000000000000000000000602082015250565b60006116dc602183610fba565b91506116e782611680565b604082019050919050565b6000602082019050818103600083015261170b816116cf565b9050919050565b7f496e766f69636520646f6573206e6f7420657869737421000000000000000000600082015250565b6000611748601783610fba565b915061175382611712565b602082019050919050565b600060208201905081810360008301526117778161173b565b905091905056fea26469706673582212200e1becc36f084f8b3a4ba0499d788951ea0061409c16fcc18389c12a385a82a764736f6c634300080a0033",
  "immutableReferences": {},
  "source": "pragma solidity ^0.8.0;\n\ncontract InvoiceContract {\n\nstruct Invoice { \n    uint invoiceId;\n    string name;\n    uint amount;\n    uint dueDate;\n    string comments;\n    string status;\n    address payment_to;\n    string payment_from;\n}\n\nInvoice[] public invoices;\nuint public nextinvoiceId = 1;\n\n\nfunction createInvoice(string memory name, uint amt, uint _dueDate, string memory _comments) public returns (uint){\n  invoices.push(Invoice(nextinvoiceId, name, amt, _dueDate, _comments, \"Pending\", msg.sender, name));\n  nextinvoiceId++;\n  return nextinvoiceId-1;\n}\n\nfunction getInvoice(uint reqInvoiceId) public view returns (string memory name, uint amt, uint dueDate, string memory comments, string memory status) {\n    uint wantedId = find(reqInvoiceId);\n    return(invoices[wantedId].name, invoices[wantedId].amount, invoices[wantedId].dueDate, invoices[wantedId].comments, invoices[wantedId].status);\n}\n\nfunction getNextUnpaidInvoice() public view returns (uint invoiceId, string memory name, uint amt, uint dueDate, string memory comments, string memory status, address paymentTo, string memory paymentFrom) {\n    uint wantedId = findFirstUnpaidInvoiceId();\n    return(invoices[wantedId].invoiceId, invoices[wantedId].name, invoices[wantedId].amount, invoices[wantedId].dueDate, invoices[wantedId].comments, invoices[wantedId].status, invoices[wantedId].payment_to, invoices[wantedId].payment_from);\n}\n\nfunction updateInvoice(uint reqInvoiceId, string memory _status) public {\n  uint wantedId = find(reqInvoiceId);\n  invoices[wantedId].status = _status;\n}\n\nfunction find(uint id) view internal returns(uint) {\n    for(uint i = 0; i < invoices.length; i++) {\n      if(invoices[i].invoiceId == id) {\n        return i;\n      }\n    }\n    revert('Invoice does not exist!');\n  }\n\n  function findFirstUnpaidInvoiceId() view internal returns(uint) {\n    for(uint i = 0; i < invoices.length; i++) {\n      string memory currentInvoiceStatus = invoices[i].status;\n      string memory statusPending = \"Pending\";\n      if(compareStringsbyBytes(currentInvoiceStatus, statusPending)) {\n        return i;\n      }\n    }\n    revert('No unpaid Invoice does not exist!');\n  }\n\n  function compareStringsbyBytes(string memory s1, string memory s2) public pure returns(bool){\n    return keccak256(abi.encodePacked(s1)) == keccak256(abi.encodePacked(s2));\n}\n\n}",
  "sourcePath": "C:\\blockchainrepo\\latest\\digitrace\\contracts\\InvoiceContract.sol",
  "compiler": {
    "name": "solc",
    "version": "0.8.10+commit.fc410830.Emscripten.clang"
  },
  "schemaVersion": "3.4.4",
  "updatedAt": "2022-01-15T10:52:06.652Z",
  "networkType": "ethereum",
  "devdoc": {
    "kind": "dev",
    "methods": {},
    "version": 1
  },
  "userdoc": {
    "kind": "user",
    "methods": {},
    "version": 1
  }
}