{
  "contractName": "InvoiceContract",
  "abi": [
    {
      "inputs": [
        {
          "internalType": "uint256",
          "name": "",
          "type": "uint256"
        }
      ],
      "name": "invoices",
      "outputs": [
        {
          "internalType": "uint256",
          "name": "invoiceId",
          "type": "uint256"
        },
        {
          "internalType": "string",
          "name": "name",
          "type": "string"
        },
        {
          "internalType": "uint256",
          "name": "amount",
          "type": "uint256"
        }
      ],
      "stateMutability": "view",
      "type": "function",
      "constant": true
    },
    {
      "inputs": [],
      "name": "nextinvoiceId",
      "outputs": [
        {
          "internalType": "uint256",
          "name": "",
          "type": "uint256"
        }
      ],
      "stateMutability": "view",
      "type": "function",
      "constant": true
    },
    {
      "inputs": [
        {
          "internalType": "string",
          "name": "name",
          "type": "string"
        },
        {
          "internalType": "uint256",
          "name": "amt",
          "type": "uint256"
        }
      ],
      "name": "createInvoice",
      "outputs": [],
      "stateMutability": "nonpayable",
      "type": "function"
    },
    {
      "inputs": [
        {
          "internalType": "uint256",
          "name": "reqInvoiceId",
          "type": "uint256"
        }
      ],
      "name": "getInvoice",
      "outputs": [
        {
          "internalType": "string",
          "name": "name",
          "type": "string"
        },
        {
          "internalType": "uint256",
          "name": "amt",
          "type": "uint256"
        }
      ],
      "stateMutability": "view",
      "type": "function",
      "constant": true
    }
  ],
  "bytecode": "0x60806040526001805534801561001457600080fd5b50610963806100246000396000f3fe608060405234801561001057600080fd5b506004361061004c5760003560e01c80633a23cc0a146100515780634e6d140514610082578063a2747921146100b4578063d4280d5a146100d2575b600080fd5b61006b600480360381019061006691906104ca565b6100ee565b60405161007992919061059f565b60405180910390f35b61009c600480360381019061009791906104ca565b6101df565b6040516100ab939291906105cf565b60405180910390f35b6100bc6102a1565b6040516100c9919061060d565b60405180910390f35b6100ec60048036038101906100e7919061075d565b6102a7565b005b60606000806100fc8461033e565b905060008181548110610112576101116107b9565b5b906000526020600020906003020160010160008281548110610137576101366107b9565b5b90600052602060002090600302016002015481805461015590610817565b80601f016020809104026020016040519081016040528092919081815260200182805461018190610817565b80156101ce5780601f106101a3576101008083540402835291602001916101ce565b820191906000526020600020905b8154815290600101906020018083116101b157829003601f168201915b505050505091509250925050915091565b600081815481106101ef57600080fd5b906000526020600020906003020160009150905080600001549080600101805461021890610817565b80601f016020809104026020016040519081016040528092919081815260200182805461024490610817565b80156102915780601f1061026657610100808354040283529160200191610291565b820191906000526020600020905b81548152906001019060200180831161027457829003601f168201915b5050505050908060020154905083565b60015481565b6000604051806060016040528060015481526020018481526020018381525090806001815401808255809150506001900390600052602060002090600302016000909190919091506000820151816000015560208201518160010190805190602001906103159291906103dd565b506040820151816002015550506001600081548092919061033590610878565b91905055505050565b600080600090505b60008054905081101561039c578260008281548110610368576103676107b9565b5b906000526020600020906003020160000154141561038957809150506103d8565b808061039490610878565b915050610346565b506040517f08c379a00000000000000000000000000000000000000000000000000000000081526004016103cf9061090d565b60405180910390fd5b919050565b8280546103e990610817565b90600052602060002090601f01602090048101928261040b5760008555610452565b82601f1061042457805160ff1916838001178555610452565b82800160010185558215610452579182015b82811115610451578251825591602001919060010190610436565b5b50905061045f9190610463565b5090565b5b8082111561047c576000816000905550600101610464565b5090565b6000604051905090565b600080fd5b600080fd5b6000819050919050565b6104a781610494565b81146104b257600080fd5b50565b6000813590506104c48161049e565b92915050565b6000602082840312156104e0576104df61048a565b5b60006104ee848285016104b5565b91505092915050565b600081519050919050565b600082825260208201905092915050565b60005b83811015610531578082015181840152602081019050610516565b83811115610540576000848401525b50505050565b6000601f19601f8301169050919050565b6000610562826104f7565b61056c8185610502565b935061057c818560208601610513565b61058581610546565b840191505092915050565b61059981610494565b82525050565b600060408201905081810360008301526105b98185610557565b90506105c86020830184610590565b9392505050565b60006060820190506105e46000830186610590565b81810360208301526105f68185610557565b90506106056040830184610590565b949350505050565b60006020820190506106226000830184610590565b92915050565b600080fd5b600080fd5b7f4e487b7100000000000000000000000000000000000000000000000000000000600052604160045260246000fd5b61066a82610546565b810181811067ffffffffffffffff8211171561068957610688610632565b5b80604052505050565b600061069c610480565b90506106a88282610661565b919050565b600067ffffffffffffffff8211156106c8576106c7610632565b5b6106d182610546565b9050602081019050919050565b82818337600083830152505050565b60006107006106fb846106ad565b610692565b90508281526020810184848401111561071c5761071b61062d565b5b6107278482856106de565b509392505050565b600082601f83011261074457610743610628565b5b81356107548482602086016106ed565b91505092915050565b600080604083850312156107745761077361048a565b5b600083013567ffffffffffffffff8111156107925761079161048f565b5b61079e8582860161072f565b92505060206107af858286016104b5565b9150509250929050565b7f4e487b7100000000000000000000000000000000000000000000000000000000600052603260045260246000fd5b7f4e487b7100000000000000000000000000000000000000000000000000000000600052602260045260246000fd5b6000600282049050600182168061082f57607f821691505b60208210811415610843576108426107e8565b5b50919050565b7f4e487b7100000000000000000000000000000000000000000000000000000000600052601160045260246000fd5b600061088382610494565b91507fffffffffffffffffffffffffffffffffffffffffffffffffffffffffffffffff8214156108b6576108b5610849565b5b600182019050919050565b7f496e766f69636520646f6573206e6f7420657869737421000000000000000000600082015250565b60006108f7601783610502565b9150610902826108c1565b602082019050919050565b60006020820190508181036000830152610926816108ea565b905091905056fea26469706673582212207ef8ce5a92280a177a94407aca3471c8bc8a8288e8c37911ff5adb6c2739fb0b64736f6c634300080a0033",
  "immutableReferences": {},
  "source": "pragma solidity ^0.8.0;\r\n\r\ncontract InvoiceContract {\r\n\r\nstruct Invoice { \r\n      uint invoiceId;\r\n      string name;\r\n      uint amount;\r\n   }\r\n\r\nInvoice[] public invoices;\r\nuint public nextinvoiceId = 1;\r\n\r\nfunction createInvoice(string memory name, uint amt) public {\r\n  invoices.push(Invoice(nextinvoiceId, name, amt));\r\n  nextinvoiceId++;\r\n}\r\n\r\nfunction getInvoice(uint reqInvoiceId) public view returns (string memory name, uint amt) {\r\n    uint wantedId = find(reqInvoiceId);\r\n    return(invoices[wantedId].name, invoices[wantedId].amount);\r\n}\r\n\r\nfunction find(uint id) view internal returns(uint) {\r\n    for(uint i = 0; i < invoices.length; i++) {\r\n      if(invoices[i].invoiceId == id) {\r\n        return i;\r\n      }\r\n    }\r\n    revert('Invoice does not exist!');\r\n  }\r\n\r\n}",
  "sourcePath": "C:\\blockchainrepo\\upload\\digitrace\\contracts\\InvoiceContract.sol",
  "compiler": {
    "name": "solc",
    "version": "0.8.10+commit.fc410830.Emscripten.clang"
  },
  "schemaVersion": "3.4.4",
  "updatedAt": "2022-01-12T00:15:41.177Z",
  "networkType": "ethereum",
  "devdoc": {
    "kind": "dev",
    "methods": {},
    "version": 1
  },
  "userdoc": {
    "kind": "user",
    "methods": {},
    "version": 1
  }
}